:020000040800F2
:10000000A81F0020A5010008AD010008AF010008ED
:10001000B1010008B3010008B501000800000000AC
:1000200000000000000000000000000001010008C6
:10003000B901000800000000450100084929000836
:10004000BF010008BF010008BF010008BF01000890
:10005000BF010008BF010008BF010008BF01000880
:10006000BF010008BF010008BF010008BF01000870
:10007000BF010008BF010008BF010008BF01000860
:10008000BF010008BF010008BF010008BF01000850
:100090009D3B0008BF010008BF010008BF01000828
:1000A000BF010008BF010008BF010008BF01000830
:1000B000BF010008BF010008BF010008BF01000820
:1000C000BF010008BF010008BF010008BF01000810
:1000D000BF010008BF010008BF010008BF01000800
:1000E000BF010008BF010008BF010008DFF80CD005
:1000F00000F0A4F800480047B1500008A81F0020F5
:10010000204B19680868B0E8F00F80F30988BFF346
:100110006F8F4FF0000080F311884EF00D0E704786
:100120000000000006480068006880F3088862B696
:1001300061B6BFF34F8FBFF36F8F00DF00BF00BF0B
:1001400008ED00E0EFF30980BFF36F8F0D4B1A68E5
:1001500020E9F00F106008B54FF0500080F31188CF
:1001600005F0ACFC4FF0000080F31188BDE80840BA
:1001700019680868B0E8F00F80F30988BFF36F8F43
:10018000704700BF5C000020EFF311804FF050017A
:1001900081F31188704780F311887047EFF3058071
:1001A000704700000648804706480047FEE7FEE724
:1001B000FEE7FEE7FEE7FEE7FEE7FEE7FEE7FEE717
:1001C000E1290008ED00000840EA01039B0703D085
:1001D00009E008C9121F08C0042AFAD203E011F886
:1001E000013B00F8013B521EF9D27047D2B201E048
:1001F00000F8012B491EFBD270470022F6E710B52C
:1002000013460A4604461946FFF7F0FF204610BD84
:1002100030B50B46014600202022012409E021FAD6
:1002200002F59D4205D303FA02F5491B04FA02F5D3
:100230002844151EA2F10102F1DC30BD064C074D29
:1002400006E0E06840F0010394E8070098471034A6
:10025000AC42F6D3FFF74EFFF864000818650008BB
:1002600070B5044600688168C943C9071BD181681D
:1002700021F00101816000F08DFB05460EE000BF1A
:1002800000F088FB401B022808D9042084F82900CC
:10029000E06A40F00100E062012070BD20688068E3
:1002A000C043C007ECD0002070BD00002DE9F8432A
:1002B0000023009390F8284082689946012C32D0A0
:1002C000012480F828404FF47874042572B34E68F6
:1002D0000A691F2796423FD8961B94FAA4FCC6F1E0
:1002E0000306BCFA8CFC06FB0CFC07FA0CF747F47F
:1002F00040180768D7F838C094FAA4F4B4FA84F424
:1003000066430C682CEA080CB4404FF4401696FA89
:10031000A6F6B6FA86F6521EB24014434CEA040C16
:10032000C7F838C027E00220BDE8F8834A68012AF0
:1003300003D080F8295001231DE094FAA4F4B4FA04
:1003400084F40A6804EB4404A2400468A66B6FF3CB
:1003500015063243A2630EE0921B94FAA4F4C2F194
:100360000302B4FA84F462439740026847F44016EB
:10037000946BB443946302689468E443E40706D042
:10038000946847F20106B443CE69344394608A69A5
:10039000012A06D1CA69B2F5E04F06D080F829508B
:1003A00001234A69012A06D00AE00268546844F42D
:1003B00080645460F5E78A6912B380F829500123FC
:1003C0000A68382406684FF007080A2A1ED3F7681F
:1003D00094FAA4FCBCFA8CFC0A3A02FB0CFC08FA66
:1003E0000CF894FAA4F4B4FA84F4D1F808C0624387
:1003F00027EA08070CFA02FC47EA0C07F7601CE042
:100400000268546844F480545460D9E7376994FA18
:10041000A4FCBCFA8CFC02FB0CFC08FA0CF894FA65
:10042000A4F4B4FA84F4D1F808C0624327EA0807B8
:100430000CFA02FC47EA0C0737610A68102A01D05F
:10044000112A04D10268946844F4000494604A6854
:10045000012A10D0022A16D0032A02681BD0146A7F
:10046000CE686FF30B04344314620A68102A19D063
:10047000112A17D035E002685469CE686FF30B0477
:1004800034435461F1E702689469CE686FF30B045A
:1004900034439461E9E7D469CE686FF30B043443C5
:1004A000D461E2E7114C0268A24217D19468240299
:1004B00017D4946844F4000494600968102910D19A
:1004C0000B490C4A0968B1FBF2F101EB81014900CB
:1004D00000E0491E00910029FBD102E080F829507C
:1004E000012380F8289018461EE7000000240140F0
:1004F0002400002040420F00F8B50025009590F838
:100500002820AE46012A1ED0012280F828204A6801
:100510001F244FF47873072A17D20668776B93FA73
:10052000A3FCBCFA8CFC521E02FB0CFC04FA0CF47B
:10053000A74393FAA3F3B3FA83F30C685A439440A6
:10054000274377632DE00220F8BD06680D2A14D2F8
:10055000376B93FAA3FCBCFA8CFCD21F02FB0CFC99
:1005600004FA0CF4A74393FAA3F3B3FA83F30C68E9
:100570005A4394402743376313E0F76A93FAA3FC86
:10058000BCFA8CFC0D3A02FB0CFC04FA0CF4A743F9
:1005900093FAA3F3B3FA83F30C685A4394402743C6
:1005A000F7620A683823072406680A2A14D3F76812
:1005B00093FAA3FCBCFA8CFC0A3A02FB0CFC04FA8A
:1005C0000CF4A74393FAA3F3B3FA83F38C685A436A
:1005D00094402743F76012E0376993FAA3FCBCFA12
:1005E0008CFC02FB0CFC04FA0CF4A74393FAA3F373
:1005F000B3FA83F38C685A439440274337610A68FF
:10060000102A01D0112A1FD1114B02689A4217D12A
:1006100093681B0218D4936843F40003936009683D
:10062000102911D10B490C4A0968B1FBF2F101EB19
:100630008101490000E0491E00910029FBD103E03F
:10064000042180F82910012580F828E02846F8BD0B
:10065000002401402400002040420F002DE9F04119
:1006600004004FF0000504D094F82900002618B1CA
:1006700007E00120BDE8F08184F82860204600F002
:1006800071F82046FFF7ECFD04270246012861D0EF
:10069000022084F82900E369616890FAA0F0194308
:1006A000E368B0FA80F003FA00F00143A0684FF469
:1006B000807C604508D0012806D00020D4F814E0E2
:1006C000BEF1010F02D00FE06046F7E763B94FF4C7
:1006D000604EA3699EFAAEFEBEFA8EFE5B1E03FA62
:1006E0000EF3034343F400602368D3F804E02EF4D0
:1006F000694E4EEA000EC3F804E020688368DFF814
:100700005CE003EA0E030B438360A068604508D1F8
:100710004FF47000256990FAA0F0B0FA80F06D1ED9
:1007200085402068C36A23F470032B43C3622068AA
:1007300080680B4B1840884204D1E662012084F89F
:10074000290009E084F82970E06A40F00100E062C5
:10075000012201E084F8297010468BE7FDF7E1FFE4
:10076000FE0F1FFF00B500680B4985B0884210D10D
:100770000A48816941F4007181618069694600F429
:10078000007004900E20009003200190044800F0B7
:1007900015F805B000BD0000002401400010024023
:1007A0000008014031B500F0F5F8044600F0F2F819
:1007B0000099001B8842F9D338BD00002DE9F84F9D
:1007C000DFF890A100220AF1040B144601274FF034
:1007D0000F090BF1040E00BF0B6807FA04F52B405C
:1007E000AB4274D1DFF870C14E68A6EB0C086645C9
:1007F0002BD00DDC032E34D005DC36B3012E19D0FE
:10080000022E2FD11BE0112E16D0122E2AD119E064
:10081000B8F5881F19D006DCB8F5803F15D0B8F5BB
:10082000801F1FD111E0B8F5001F0ED0B8F5041FCE
:1008300018D10AE0CA6815E0CA68121D12E0CA6839
:1008400008320FE0CA680C320CE08A682AB1012A2B
:100850004FF0080203D0456104E0042202E0056184
:1008600000E00022FF2B01D8064601E000F104065B
:100870004FEA840501D9A5F12005D6F800C009FA90
:1008800005F82CEA080C02FA05F54CEA050CC6F846
:1008900000C04D68ED0057D5304DAE6946F00106F9
:1008A000AE61AD6924F0030605F0010500952C4DFD
:1008B00006EB050CDCF80850A6074FEA167809FA93
:1008C00008F6B543274EB04202D1002610E03BE0C7
:1008D000254EB04201D101260AE0244EB04201D19A
:1008E000022605E0224EB04201D1032600E0042694
:1008F00006FA08F62E43CCF808604D68DAF8006076
:10090000ED03554601D51E4300E09E432E604D6821
:10091000DBF80060AD035D4601D51E4300E09E4359
:100920002E604D68DEF80060ED02754601D51E436D
:1009300000E09E432E604D68AD020E4D2E6801D53D
:100940001E4300E09E432E60641C102CFFF444AF55
:10095000BDE8F88F000401400000111000100240B3
:100960000000014000080140000C0140001001405F
:10097000001401400C0401408068084000D00120B0
:100980007047C2684A40C26070470AB1016170474F
:100990000904FBE701480068704700009800002048
:1009A00070B5040004D094F83500002510B106E0BD
:1009B000012070BD84F83450204600F05FF802201A
:1009C00084F835002068016821F00101016000F021
:1009D000F1FC014627482268B1FBF0F05060264A3E
:1009E0006368934206D94FF4967358434FF47A7371
:1009F000B0FBF3F02368401C18626068012390424A
:100A000008D84000B1FBF0F0C0F30B01042916D266
:100A1000042014E0A26852B100EBC00202EB001007
:100A2000B1FBF0F040F44040010507D007E000EBD7
:100A30004000B1FBF0F040F40040F5E718462168B3
:100A4000C861D4E90701084321680860D4E90310AC
:100A5000084321688860D4E9050108432168C8601B
:100A60002068016841F001010160A56384F8353018
:100A7000002070BD40420F00A086010000B5006854
:100A80000C4985B0884212D1C020009012200190FC
:100A90000320039069460848FFF790FE0748C169A4
:100AA00041F40011C161C06900F40010049005B068
:100AB00000BD000000540040000C01400010024046
:100AC00002480168491C016070470000980000203E
:100AD000074810B5016841F010010160032000F0E3
:100AE00059F8002000F006F800F016F8002010BDBC
:100AF0000020024010B5044600F042FC4FF47A7129
:100B0000B0FBF1F001F0F0F900222146501E00F098
:100B100021F8002010BD00000C4808B5816941F0A3
:100B200001018161806900F001000090032000F064
:100B300031F800221146501E00F00CF804484168BC
:100B400021F0E06141F00071416008BD00100240F9
:100B500000000140F0B40E4B1B680C46C3F30223A7
:100B6000C3F10705042D00D90425191D072901D259
:100B7000002300E0DB1E012606FA05F1491E214094
:100B800099409E40761E16403143F0BC01F01CBCDB
:100B90000CED00E0064900F0070208684FF6FF037D
:100BA000184040EA0220034A1043086070470000E2
:100BB0000CED00E00000FA0500EB4112D0F81C0437
:100BC000D26B02F04DBB00EB4112D0F81C04D2F8FE
:100BD0001C2202F095BB70B50A460446090602F0D5
:100BE0007F0003D504EB4011283103E004EB4211F0
:100BF00001F5027100258D700870D009487094F8D5
:100C0000E803012809D0012084F8E803206802F0F5
:100C1000C6FE84F8E853002070BD022070BD70B598
:100C200004460D460E0601F07F0004EB401101D58D
:100C3000283101E001F502710870E80948700A6185
:100C4000CB7094F8E803012809D0012084F8E80368
:100C5000206802F074FD002084F8E80370BD0220D3
:100C600070BD70B504460E4601F07F0004EB4011E4
:100C700001F5077100252CC101F81F5C01F8200D5A
:100C800094F8E80301280AD0012084F8E8037006EC
:100C9000206802F0DFFE84F8E853002070BD0220D7
:100CA00070BD70B50D460446090605F07F0003D5FA
:100CB00004EB4011283103E004EB451101F502710A
:100CC00001228A700870E809487094F8E803012846
:100CD00007D084F8E823206802F096FE680602D068
:100CE00006E0022070BD04F57B71206802F055FE1D
:100CF000002084F8E80370BD70B504460E4601F08C
:100D00007F0004EB40113C3100252CC1012201F889
:100D10001F2C01F8200D94F8E803012809D084F86D
:100D2000E8237006206802F095FE84F8E85300205E
:100D300070BD022070BD10B50446006802F034FF9B
:100D4000000402D5204601F04FFB206802F02CFF82
:100D500040050CD5206830F8441F21F480610180E3
:100D6000204600F06DF80021204600F07EF8206853
:100D700002F01AFF400405D5206830F8441F21F422
:100D800080410180206802F00FFF800405D52068B3
:100D900030F8441F21F400510180206802F004FF64
:100DA000C00413D5206830F8401F21F004010180F1
:100DB00021684FF43D40A1F84000204600F04DF876
:100DC000206830F8441F21F480510180206802F02F
:100DD000EBFE00051AD5206830F8441F21F40061AD
:100DE0000180206830F8401F41F008010180206830
:100DF00030F8401F41F004010180206802F0D4FE69
:100E0000C043C00402D5204600F04AF8206802F032
:100E1000CBFE800508D5206830F8441F21F400710E
:100E20000180204600F01DF8206802F0BDFEC005DC
:100E300005D5206830F8441F21F48071018010BD71
:100E400010B504460121D0F81C0402F0DEFAD4F8F3
:100E50001C04BDE8104002F0A7BAD0F81C0402F050
:100E6000C2BAD0F81C0402F0C4BA10B5044690F817
:100E7000E80301280BD0012084F8E80384F824104B
:100E8000206802F0A4FE002084F8E80310BD0220D0
:100E900010BDD0F81C2400F57B71104602F0BFBADB
:100EA00010B50446D0F81C0402F0EDFAA069002841
:100EB00004D00348016841F00601016010BD000044
:100EC00010ED00E00120010291FAA1F1024AB1FA0D
:100ED00081F142F82100704700000E4210B533A4A2
:100EE00001461DCC86B08DE81D0034A0344C00684E
:100EF00004900020012931D0022948D010292BD19B
:100F000061682268D20127D54FF4701292FAA2F2DA
:100F100001F47010B2FA82F2D040C9031DF800004B
:100F200010D561684FF4003292FAA2F201F4003158
:100F3000B2FA82F2D14004AA515C224AB2FBF1F12A
:100F4000484301E0204948436168490204D4400015
:100F50005FF00301B0FBF1F006B010BD226AC2F3EE
:100F60000121012903D1920701D5C803F4E7022921
:100F700005D1626A920702D549F64040ECE70329A1
:100F8000EAD121688903E7D54FF22440E4E700F075
:100F900027FA61684FF4804292FAA2F201F44041CC
:100FA000B2FA82F2D140491C4900D3E7020304059A
:100FB000060708090A0B0C0D0E0F101001020000A5
:100FC0000010024000127A0000093D002DE9F843AC
:100FD00004460078454DC00773D0E86940F0805062
:100FE000E861E869424E00F080500090306840F4BB
:100FF00080703060FFF7CEFC074604E0FFF7CAFCC4
:10100000C01B642833D83068C005F7D5286AA1888A
:1010100000F4407001F440710126814216D0286A24
:10102000320420F4407192FAA2F0B0FA80F083000A
:1010300030480344C3F8006492FAA2F2B2FA82F292
:1010400000EB82000023C0F8003429626068B0F52C
:10105000807F30D1FFF79EFCB046074641F28839C9
:10106000022607E0FFF796FCC11B494502D9032081
:10107000BDE8F88396FAA6F0B0FA80F040F04000A0
:10108000B8EB501F01D128680BE096FAA6F0B0FA31
:1010900080F040F04000B6EB501F01D1286A00E01C
:1010A000686A96FAA6F2B2FA82F202F01F0208FA11
:1010B00002F10842D6D0286A616820F440700843E3
:1010C00028622078800705D56868A16820F4404030
:1010D000084368602078C00605D56868E16820F498
:1010E0008000084368600020C2E700000010024052
:1010F00000700040000042422DE9F047DFF878928E
:1011000005460E46D9F80000022300F0070701202B
:1011100041044206994C41F28838B74271D2D9F85D
:1011200000C02CF0070C4CEA060CC9F800C0D9F836
:10113000007007F00707B7426FD12E78B60705D5C4
:101140006668AF6826F0F0063E4366602E78F607C4
:1011500056D06E68012E0BD0022E1ED093FAA3F14A
:10116000B1FA81F141F02001490924D0216823E03E
:1011700091FAA1F2B2FA82F242F02002520901D0B1
:10118000226800E0626A91FAA1F1B1FA81F101F0FE
:101190001F018840024240D017E092FAA2F1B1FA52
:1011A00081F141F02001490901D0216800E0616A24
:1011B00092FAA2F202E0616A93FAA3F2B2FA82F220
:1011C00002F01F029040014227D0606820F0030027
:1011D00030436060FFF7DEFB06466868012809D0EF
:1011E0000228474613D01EE0FFF7D4FB801BB8420D
:1011F00001D992E047466068C0F381000128F3D12D
:10120000A1E015E0FFF7C6FB801BB84273D8606809
:10121000C0F381000228F5D195E092E0FFF7BAFB18
:10122000801BB84279D8606810F00C0FF6D18AE0C4
:101230002F78BF0707D56768D5F808C027F0F007F3
:1012400047EA0C0767602F78FF076DD06F68012FA2
:101250000BD0022F1ED093FAA3F1B1FA81F141F025
:101260002001490924D0216823E091FAA1F2B2FAC1
:1012700082F242F02002520901D0226800E0626A44
:1012800091FAA1F1B1FA81F101F01F018840024207
:1012900057D017E092FAA2F1B1FA81F141F02001A2
:1012A000490901D0216800E0616A92FAA2F202E0E5
:1012B000616A93FAA3F2B2FA82F202F01F0290403E
:1012C00001423ED0606820F0030038436060FFF7C1
:1012D00061FB07466868012807D0022811D01FE08B
:1012E000FFF758FBC11B414517D86068C0F3810068
:1012F0000128F5D118E010E0FFF74CFBC11B414578
:101300000BD86068C0F381000228F5D10CE000BF63
:10131000FFF740FBC11B414502D90320BDE8F08720
:10132000606810F00C0FF3D1D9F8001021F007011C
:101330003143C9F80010D9F8000000F00700B042AE
:1013400001D00120EAE72878400705D56068E96800
:1013500020F4E060084360602878000706D56068E4
:10136000296920F4605040EAC10060600020FFF766
:10137000C1FB0020D2E70000002002400010024024
:1013800010B500F043F808494968F02292FAA2F239
:1013900001F0F001B2FA82F2D140044A515CC84037
:1013A0000349086010BD000000100240805F000883
:1013B0002400002010B5FFF7E3FF074949684FF408
:1013C000E06292FAA2F201F4E061B2FA82F2D14054
:1013D000024A515CC84010BD00100240805F000806
:1013E00010B5FFF7CDFF074949684FF4605292FAF4
:1013F000A2F201F46051B2FA82F2D140024A515C89
:10140000C84010BD00100240805F000810B519A34D
:1014100085B00FCB8DE80F001AA01B4B006804901D
:101420005A681A4802F00C0104291DD008291BD162
:101430004FF4701494FAA4F402F47011B4FA84F422
:10144000E140D2031DF8011010D55A684FF4003363
:1014500093FAA3F302F40032B3FA83F3DA4004AB55
:101460009A5CB0FBF2F0484305B010BD0848484311
:10147000FAE7000002030405060708090A0B0C0D31
:101480000E0F1010010200000010024000127A003E
:1014900000093D002DE9F84F05460078DFF85C951E
:1014A000C0074FF0010429D0D9F804004E46C0F31C
:1014B00081006704012807D07068C0F3810002280A
:1014C0001DD17068C0031AD597FAA7F0B0FA80F062
:1014D00040F02000400901D0306800E0706A97FABF
:1014E000A7F1B1FA81F101F01F0104FA01F10842FC
:1014F00004D06868012801D0052879D184E03068DB
:1015000020F480303060306820F480203060FFF7B5
:1015100041FA824641F2883806E000BFFFF73AFA06
:10152000A0EB0A0141457DD897FAA7F0B0FA80F008
:1015300040F02000400901D0306800E0706A97FA5E
:10154000A7F1B1FA81F101F01F0104FA01F108429B
:10155000E4D1306820F480303060686801280BD016
:10156000052811D0306820F480203060686858B3B6
:10157000FFF710FA824611E0306820F480203060D6
:10158000306840F48030F0E70520B070EEE700BF2F
:10159000FFF700FAA0EB0A014145C4D897FAA7F07B
:1015A000B0FA80F040F02000400901D0306800E03F
:1015B000706A97FAA7F1B1FA81F101F01F0104FAFC
:1015C00001F10842E4D01FE0FFF7E4F9824605E0AC
:1015D000FFF7E0F9A0EB0A014145A4D897FAA7F07C
:1015E000B0FA80F040F02000400902D0306801E0FD
:1015F000BAE0706A97FAA7F1B1FA81F101F01F0120
:1016000004FA01F10842E3D12878FD4F80074FF03A
:10161000000A4FF0020634D5D9F80410484611F0FC
:101620000C0F00E0B0E108D04168C846C1F3810169
:10163000022927D14168C90324D496FAA6F1B1FA48
:1016400081F141F02001490901D0016800E0416ABF
:1016500096FAA6F2B2FA82F202F01F0204FA02F23D
:10166000114202D0296901297ED10168F82321F0B5
:10167000F80293FAA3F36969B3FA83F399400A4332
:1016800002604FE0286938B394FAA4F0B0FA80F011
:1016900047F82040FFF77EF9834605E0FFF77AF927
:1016A000A0EB0B00642898D896FAA6F0B0FA80F068
:1016B00040F020004009404601D0006800E0406A48
:1016C00096FAA6F1B1FA81F101F01F0104FA01F1D5
:1016D0000842E3D04046C8E794FAA4F1B1FA81F198
:1016E00047F821A0FFF756F9834605E0FFF752F9C6
:1016F000A0EB0B006428D6D896FAA6F0B0FA80F0DA
:1017000040F020004009404601D0006800E0406AF7
:1017100096FAA6F1B1FA81F101F01F0104FA01F184
:101720000842E3D12878000773D5A869D8B394FAA2
:10173000A4F0B0FA80F007EB8000C0F88044FFF717
:1017400029F9804606E000BFFFF724F9A0EB080066
:101750006428A8D896FAA6F0B0FA80F040F06000AD
:10176000B4EB501F04D100E0D7E1D9F800000CE041
:1017700096FAA6F0B0FA80F040F06000B6EB501F89
:10178000484601D1006A00E0406A96FAA6F1B1FA33
:1017900081F101F01F0204FA02F10842D4D00120C5
:1017A000FFF700F835E0FFE794FAA4F1B1FA81F110
:1017B00007EB8101C1F880A4FFF7ECF8804605E053
:1017C000FFF7E8F8A0EB0800642894D896FAA6F092
:1017D000B0FA80F040F06000B4EB501F02D1D9F8AD
:1017E00000000CE096FAA6F0B0FA80F040F060003D
:1017F000B6EB501F484601D1006A00E0406A96FAF5
:10180000A6F1B1FA81F101F01F0204FA02F10842D7
:10181000D6D1287840077DD5D9F81C1041F08051E9
:10182000C9F81C10D9F81C00DFF8D8B100F08050BE
:101830000090DBF8001041F48071CBF80010FFF746
:10184000A9F8804606E000BFFFF7A4F8A0EB080067
:101850006428BAD8DBF80000C005F5D594FAA4F1E5
:10186000B1FA81F107EB8101C1F800A44FF0040B3C
:101870009BFAABF1B1FA81F107EB8101C1F800A449
:10188000FFF788F8009007E0FFF784F80099411A05
:1018900041F28830814277D896FAA6F0B0FA80F00B
:1018A00040F04000B4EB501F02D1D9F800000CE02A
:1018B00096FAA6F0B0FA80F040F04000B6EB501F68
:1018C000484601D1006A00E0406A96FAA6F1B1FAF2
:1018D00081F101F01F0104FA01F1A0460842D3D1C1
:1018E000E868E0B1012850462AD094FAA4F1B1FA90
:1018F00081F107EB8101C1F800049BFAABF000BF56
:10190000B0FA80F007EB8000C0F80044E8680128D6
:1019100021D000E083E0FFF73DF8834656E094FADB
:10192000A4F1B1FA81F107EB8101C1F800A49BFA9F
:10193000ABF1B1FA81F107EB8101C1F800A4E5E751
:101940009BFAABF1B1FA81F107EB8101C1F8000418
:1019500094FAA4F0D4E7FFF71DF8834608E000BF2F
:10196000FFF718F8A0EB0B0141F2883081420BD849
:1019700096FAA6F0B0FA80F040F04000B8EB501FA5
:1019800003D1D9F800000DE09DE096FAA6F0B0FA78
:1019900080F040F04000B6EB501F484601D1006A8D
:1019A00000E0406A96FAA6F1B1FA81F101F01F0257
:1019B00008FA02F10842D3D031E000BFFEF7EAFF97
:1019C000A0EB0B0141F2883081427CD896FAA6F058
:1019D000B0FA80F040F04000B8EB501F02D1D9F8C7
:1019E000000012E096FAA6F0B0FA80F040F0400055
:1019F000B6EB501F484607D1006A06E000100240CF
:101A00000000424200700040406A96FAA6F1B1FA26
:101A100081F101F01F0208FA02F10842CED1E86913
:101A2000B0B3D9F804104E46C1F38101022974D035
:101A300002284FF080714FF0007950460AD091FA99
:101A4000A1F1B1FA81F147F82100FEF7A3FF0746A3
:101A50004D466BE08A4691FAA1F1B1FA81F1BB469D
:101A600047F82100FEF796FF80464F4606E000BF8C
:101A7000FEF790FFA0EB0800642854D897FAA7F06F
:101A8000B0FA80F040F02000400902D0306801E058
:101A900061E0706A97FAA7F1B1FA81F101F01F01D4
:101AA00004FA01F10842E3D1286AB0F5803F05D17C
:101AB0007068A96820F4003008437060D5E9080117
:101AC0000843716800E02EE021F47411084370604F
:101AD0009AFAAAF0B0FA80F04BF82040FEF75AFFCD
:101AE000054604E0FEF756FF401B64281BD897FA12
:101AF000A7F0B0FA80F040F02000400901D0306833
:101B000000E0706A97FAA7F1B1FA81F101F01F01C4
:101B100004FA01F10842E5D01DE01EE0FEF73AFFAD
:101B2000C01B642802D90320BDE8F88F95FAA5F000
:101B3000B0FA80F040F02000400901D0306800E0A9
:101B4000706A95FAA5F1B1FA81F101F01F0104FA6A
:101B500001F10842E2D10020E6E70120E4E70000BD
:101B600070B5040003D0607C002610B105E00120B0
:101B700070BD2674204600F043F8022060742046B1
:101B800000F018F9042578BB204600F0E7FD58BBAB
:101B90002068416821F007014160A06820B1174822
:101BA000016821F0010101601448001F0168A2686A
:101BB00021F46071114301606068411C04D101206F
:101BC000FFF78CF980B1401E21688A6822F00F026D
:101BD00042EA10428A602168CA6860F30F02CA6054
:101BE000204600F0D5FD08B16574C0E7E67301201A
:101BF0006073A0736074002070BD0000306C004002
:101C000008B500680C49884215D1FFF75BF90B480D
:101C1000C16941F00061C161C069094A00F000601A
:101C200000900120C10391FAA1F1B1FA81F102EB18
:101C30008101C1F8000408BD0028004000100240E6
:101C4000000042422DE9F0410D4604003BD0C5B3EF
:101C5000207C01283AD04FF0010884F8108002203F
:101C60006074E87872B300F070FDE073687800F09B
:101C70006CFD6073A87800F068FDA073C2B2617B50
:101C8000E07B00F0B7FD20732870204600F0A2FD35
:101C90004FF46161B0FBF1F1002518292DD918220C
:101CA000B1FBF2F1A1EB011101EB4101C1EB01111B
:101CB00000EBC1163146204600F0DBFD0427C8B911
:101CC0000BE000E004E00120BDE8F0810220FBE72A
:101CD000E07368786073A878CFE7204600F073FD62
:101CE000411C0AD0B04208D206490144204600F007
:101CF000ACFD10B167742574E5E784F81180257494
:101D00000020E1E7805101002DE9F0410D4604007B
:101D100024D01DB3207C012823D04FF0010884F883
:101D20001080022060742878EAB100F00EFD4FF4B4
:101D3000616100FB01F6687800F007FDC0EB001060
:101D400006EB8006A87800F000FD351829462046ED
:101D500000F08FFD0026042710BB0FE00120BDE836
:101D6000F0810220FBE74FF4616148436978C1EBE1
:101D7000011100EB8100A9784518E7E72068416868
:101D800021F005014160204600F01DFD411C0AD0F4
:101D9000A84208D206490144204600F056FD10B181
:101DA00067742674DAE784F8118026740020D6E779
:101DB0008051010070B504000AD02068416821F00C
:101DC00008014160FEF7E6FD05464FF47A7608E02B
:101DD000012070BDFEF7DEFD401BB04201D903209B
:101DE00070BD206840680007F4D5002070BD000079
:101DF00010B5040003D094F8510010B104E00120A4
:101E000010BD204600F038F8022084F85100206808
:101E1000016821F040010160D4E901010843D4E9DF
:101E200003121143084361690843218B01F40071D7
:101E30000843E1690843216A0843A16A084321680D
:101E40000860A069042101EA1040616A0843216822
:101E500048602168E06A08612068C16921F4006176
:101E6000C1610449002008706065012084F85100B8
:101E7000002010BD9400002010B50068114986B004
:101E800088421CD11048816941F480518161806988
:101E90000E4C00F480500490A0200090022001908D
:101EA0000320039069462046FEF788FC002140206D
:101EB000CDE90001029169462046FEF77FFC06B09D
:101EC00010BD000000300140001002400008014039
:101ED0004FF0E0210428086903D020F004000861D5
:101EE000704740F00400FAE710B5401EB0F1807F63
:101EF00001D3012010BD4FF0E02460610F21601775
:101F000000F062FA0020A06107202061002010BDCF
:101F100030B590F83820012A19D0012200F8382F66
:101F200002234370D1E900342343D1E902452C4315
:101F300023430C6923434C69896923430B4350F8BD
:101F4000381C4B64427000210170084630BD0220ED
:101F500030BD30B590F83820012A20D0012280F819
:101F60003820022380F8393003685C6824F070045C
:101F70005C6003685C680D682C435C6003689C6867
:101F800024F080049C6003689C6849680C439C6052
:101F900080F83920002180F83810084630BD022032
:101FA00030BD70B5044690F8380001280DD00125E9
:101FB00084F83850022084F8390042B1042A0AD04B
:101FC000082A0CD00C2A11D10DE0022070BD206827
:101FD00000F05CFD0AE0206800F080FD06E020686B
:101FE00000F0A8FD02E0206800F0D0FD84F8395030
:101FF000002084F8380070BD10B5040003D094F8B8
:10200000390010B107E0012010BD002084F838002D
:10201000204600F00CF8022084F83900211D2068C9
:1020200000F002FD012084F83900002010BD704747
:1020300070B5044690F838000D4601280DD00126F1
:1020400084F83860022084F8390042B1042A18D09C
:10205000082A2AD00C2A4DD139E0022070BD206810
:1020600000F014FD2068816941F008018161206859
:10207000816921F004018161206881692A69114325
:1020800011E0206800F02AFD2068816941F40061B8
:1020900081612068816921F48061816120688169A2
:1020A0002A6941EA0221816124E0206800F042FDB2
:1020B0002068C16941F00801C1612068C16921F04F
:1020C0000401C1612068C1692A69114311E02068D7
:1020D00000F05CFD2068C16941F40061C1612068C5
:1020E000C16921F48061C1612068C1692A6941EA3E
:1020F0000221C16184F83960002084F8380070BD85
:1021000010B5040003D094F8390010B107E00120A5
:1021100010BD002084F83800204600F00DF80220A1
:1021200084F83900211D206800F07EFC012084F82D
:102130003900002010BD000010B50068104986B0BD
:1021400088421AD10F48816941F400618161806938
:10215000022400F4006004904FF44040CDE90004F4
:10216000694609480394FEF729FBE001CDE9000424
:10217000694606480394FEF721FB06B010BD000037
:10218000002C014000100240000C014000080140FA
:1021900070B519488CB017490160002589150124D4
:1021A0004561C0E9021445604FF460210461C161DA
:1021B000FEF754FA089408A90F48CDE90945FEF73F
:1021C0009BF90226CDE900644FF4E04002950790A8
:1021D000CDE90554CDE9035669460748FEF766F890
:1021E0000320CDE9000669460348FEF75FF80CB00E
:1021F00070BD000000240140E8060020F0B52C4826
:1022000085B0816941F010018161816901F010019F
:102210000491816941F020018161816901F020010F
:102220000491816941F004018161816901F0040137
:102230000491816941F0080181618069012500F004
:10224000080004901020CDE900051A4F02246946C9
:1022500003943846FEF7B2FAE601CDE90065694617
:1022600038460394FEF7AAFA002231463846FEF7B4
:102270008CFB40F60140CDE900050F4D6946039403
:102280002846FEF79BFA00940024019469462846EC
:102290000294FEF793FA4FF4815000900748CDE97D
:1022A000010469462846FEF789FA05B0F0BD000032
:1022B0000010024000080140000C01400000121014
:1022C0001CB511480F49002401604FF0FF31C0E9EF
:1022D00001140121017341738173C473FFF740FC42
:1022E0008DF800408DF801408DF8024001226946CA
:1022F0000548FFF709FD012201A90348FFF7A2FCE9
:102300001CBD000000280040540700200C480B4969
:102310004FF4007201604FF48271416000218160CE
:10232000C1600161C0E905121022C0E907214162C4
:1023300081620A21C162FFF75BBD000000300140ED
:102340006807002030B51F4891B01D490024C0E93E
:1023500000148460C46004614461FFF7D1FE194831
:10236000FFF74AFE0E940EA916480F94FFF7F1FDF1
:102370000794089409944FF400500A94CDE90B4057
:1023800007A910480D94FFF7C3FD6025CDE900545F
:102390000294039404940594002269460948069423
:1023A000FFF746FE0422694606480094FFF7F9FD50
:1023B0000822694603480095FFF73AFE11B030BD88
:1023C000002C0140C00700200907090E002806DA8A
:1023D00000F00F0000F1E02080F8141D704700F1BC
:1023E000E02080F8001470472DE9FC5F4FF00008F2
:1023F0000446ADF80480ADF8008048F60F7B4FF03E
:1024000002094FF4806692E1BDF8041011F00F0745
:102410002BD030F82710ADF80010BDF800100904DB
:1024200078D530F8272040F68F710A4020F8272011
:1024300004EB471595F8120205F50275002820688F
:1024400069D0297830F8212052047DD5B0F8503079
:1024500009EBC101194406EB4101415AC1F30901DD
:102460005FEA010A71D0EA88D0E0BDF80410C9061D
:102470002AD4018801EA0B010180206804F12805B3
:10248000B0F850202B7809EBC301114406EB410151
:10249000405AC0F309006064E16B0844E063002126
:1024A0002046FEF789FB94F824000028ABD0A869E9
:1024B0000028A8D194F82400216840F08000A1F8F9
:1024C0004C0084F8248032E1018804F50275ADF8EF
:1024D0000010BDF8001009051ED5B0F8503029785D
:1024E000062202EBC101194406EB4101405A04F5F2
:1024F0007B71C0F30903EB61AA88206801F058FBE7
:102500002068018840F68F72114001802046FEF756
:10251000C0FC0CE1A0E055E0BDF800100904D2D5E4
:10252000028840F68F710A4002802068B0F850306F
:102530002978062202EBC101194406EB4101405AF9
:1025400083059B0DEB6101E051E063E008D0AA88B0
:102550006969206801F02CFBE969686908446861D1
:1025600000212046FEF72FFB2068B0F85010891D8F
:1025700006EB4101014428693E280CD9C0F34F12F3
:10258000C00601D1521E92B24FF6FF7000EA8220BF
:1025900040F4004009E0C0F34F02C00701D0521CD4
:1025A00092B24FF6FF7000EA822008602168088826
:1025B0004BF68F72104080F4405048F28002104376
:1025C0000880B4E0B0F850202B78062101EBC3015D
:1025D000114406EB4101415AC1F309015FEA010AC6
:1025E00024D0AA885346696901F0E2FA1EE0B0F8E7
:1025F0005020062303EBC101114406EB4101415A6F
:10260000C1F309015FEA010A04D02A8953466969C6
:1026100001F0CEFA2978206830F8213048F68F7220
:10262000134048F2C002134320F82130E96901EB5E
:102630000A00E861696901EB0A026A61AB6913B1DA
:102640002869504504D929782046FEF7BCFA03E0F2
:1026500029782046FEF705FBBDF80000000666D588
:10266000206804EB471530F8271001EA0B0120F829
:10267000271095F8320028350028206812D02978D4
:1026800030F82120B0F8503052061ED509EBC101B8
:10269000194406EB4101405A83059B0DEB6124D0A0
:1026A000EA881EE0B0F850302A7809EBC2011944DC
:1026B00006EB4101405A83059B0DEB6121D0AA88AE
:1026C0006969206801F089FA1BE0062202EBC1016A
:1026D000194406EB4101405A83059B0DEB6104D080
:1026E0002A896969206801F078FA2978206830F829
:1026F000212048F68F731A404CF280031A4320F8C9
:1027000021202068B0F850202B7809EBC301114438
:1027100006EB4101405AC0F30900E86169690A18F3
:102720006A612978AB69204663B1FEF7E5FA206853
:10273000B0F84410ADF8041009043FF565AE002070
:10274000BDE8FC9FFEF738FAF1E7010901EB8101D2
:1027500000F00F0000EB4100C0B2704770B50446B6
:10276000FEF718F905464FF47A7606E0FEF712F9FF
:10277000401BB04201D9032070BD2068406880062C
:10278000F4D52068416841F010014160002070BD1F
:1027900070B504460068416821F010014160FEF701
:1027A000F9F805464FF47A7607E000BFFEF7F2F835
:1027B000401BB04201D9032070BD206840688006EC
:1027C000F4D5002070BD0168086A496A89B241EAFF
:1027D00000407047006881698AB2C1698BB2816923
:1027E00089B28A4203D0C06961F31F40704743EA4F
:1027F00002407047F0B56424C1EBC1030927A5006E
:10280000072603EB01130329B3FBF7F100F5FA6088
:10281000114401440AD2401EB0FBF4F201EB9001D6
:10282000B0FBF5F0891A0844001D08E0B0FBF4F293
:1028300001EB9001B0FBF5F0891A0844801CB0FB55
:10284000F6F106FB1100C0B2F0BD70B50D460646AC
:102850000024FFF783FF48B93168280C086231680B
:10286000A8B248623046FFF793FF00B1012420462A
:1028700070BD70B50D4606460024FFF76FFF48B9DE
:102880003168280C88613168A8B2C8613046FFF70A
:102890007FFF00B10124204670BD024600209268EF
:1028A0000A4200D0012070471FB54FF44040012676
:1028B000CDE90006DFF888800227002469460397E7
:1028C0004046FDF77BFF3502CDE900561D4E6946B7
:1028D00003973046FDF772FF012229463046FEF786
:1028E00054F8012210213046FEF74FF847464FF4C6
:1028F000804A4FF48058A946642002F09CFC45466B
:1029000041463846FEF738F801280AD14CB95146FD
:102910003846FEF736F8012249463046FEF735F8CC
:10292000012429463846FEF727F80028E4D1012C77
:10293000E2D10024224649463046FEF726F8DBE77E
:10294000000C01400008014010B5FEF7B9F802F094
:102950007EFC06480168491C0160054801680029A1
:1029600002D00168491E016010BD00001C0000205B
:102970002000002030B593B00920009001200024F1
:10298000CDE901040225CDE90605000408904FF4C5
:10299000E01009906846FEF77DFD0520CDE90A05A7
:1029A0006802CDE90C4002210AA80E94FEF7A4FBB0
:1029B00013200F90280210908001CDE911040FA878
:1029C000FEF704FBFEF7DCFC4FF47A71B0FBF1F08C
:1029D000FFF78AFA0420FFF77BFA13B030BD00003E
:1029E0000D48016841F00101016041680B4A114046
:1029F000416001680A4A11400160016821F48021A8
:102A00000160416821F4FE0141604FF41F018160C3
:102A10000449C00308607047001002400000FFF83E
:102A2000FFFFF6FE08ED00E0F0B50268144B154C10
:102A3000154D4FF08047984205D0B84203D0A042D0
:102A400001D0A84203D122F070064A68324398426E
:102A500005D0B84203D0A04201D0A84203D122F44D
:102A60004074CA68224302608A68C2620A6882624D
:102A7000984201D10969016301214161F0BD000063
:102A8000002C0140000400400008004030B5026AFC
:102A900022F001020262026A4368846924F073052D
:102AA0000C682C4322F002058A682A430A4DA8428A
:102AB0000BD122F00805CA6823F440732A434D69FC
:102AC00022F004021D438B692B43436084614968F3
:102AD0004163026230BD0000002C014030B5026A43
:102AE00022F010020262026A436884690D6824F4CD
:102AF000E64444EA05248D6822F0200242EA0512E9
:102B00000B4DA8420ED1CD6822F0800242EA051298
:102B10004D6923F4406343EA85038D6922F0400246
:102B200043EA85034360846149688163026230BD82
:102B3000002C014030B5026A22F480720262036AFE
:102B40004268C46923F4007324F073050C682C43B5
:102B50008D6843EA05230C4DA8420ED1CD6823F4BD
:102B6000006343EA05234D6922F4405242EA05120C
:102B70008D6923F4806342EA05124260C4614968AA
:102B8000C163036230BD0000002C014030B5026A11
:102B900022F480520262046A4268C3690D6823F419
:102BA000E64343EA05238D6824F4005444EA0534DF
:102BB000064DA84204D14D6922F4804242EA8512B2
:102BC0004260C36149680164046230BD002C014069
:102BD00010B502210348FDF7CFFE08B1002010BD5B
:102BE000012010BD000C01407CB50C4605466A462C
:102BF00001A909A001F013FD00280CD100988169FA
:102C00008278891E51434908296080780199484398
:102C10004008206000207CBD303A00002DE9FF41D3
:102C2000012401AA022503260094094F82E87000BE
:102C300069463846FDF7C2FD01AA0020009582E8EA
:102C4000510069463846FDF7B9FDBDE8FF81000037
:102C5000000C01402DE9FC41FFF7E0FF46494FF031
:102C60000108C1F8008045490A200A6801920A68F3
:102C7000019BD21A8242FAD3FFF7AAFF78B10A2445
:102C8000FF2003F03BF9641E14F0FF04F8D1002587
:102C90002946284602F032FD012803D05BE00220DD
:102CA000BDE8FC81364E4FF47A7030604FF4D57138
:102CB000082002F023FD012808D00021A92002F0FD
:102CC0001DFD012834D80225A92433E06F46FF20DA
:102CD00003F014F93855641CE4B2042CF7D39DF8C2
:102CE0000200012837D19DF80300AA2833D14407F8
:102CF000306828B12146A92002F000FD0028F7D154
:102D0000306840B300213A2002F0F8FC18BB0024E0
:102D1000FF2003F0F3F83855641CE4B2042CF7D319
:102D20009DF80000400601D50C2514E0042512E0B2
:102D300001252C46306828B10021204602F0DEFC37
:102D40000028F7D1306828B94FF40071102002F044
:102D5000D5FC00B100250B4C657001F0E5F91DB103
:102D6000207820F0010000E040462070207820F01C
:102D700004002070207893E7100C01401C00002014
:102D800020000020A80000202DE9FF416F4E0746DB
:102D90000C463078C00711D1FFF71AFF70B101253A
:102DA00077B1012F0FD0032F4CD0042F7ED00425F4
:102DB00001F0BAF9284604B0BDE8F0810320FAE733
:102DC00002F088FCBDE00021092002F097FC0028F9
:102DD000EED11021684602F025FC0028E8D09DF8CD
:102DE00000100120B0EB911F0CD19DF809109DF847
:102DF000082001EB02229DF8071000EB014010446F
:102E000080023FE09DF805009DF80A1000F00F00D9
:102E100000EBD1109DF809109DF8072001F0030187
:102E200000EB41009DF80810C01F890901EB8201E9
:102E30009DF8062002F0030201EB8221491C81402B
:102E4000216080E070784FF0000140071CD58D2094
:102E500002F054FC0028ABD1FF2003F04FF8102102
:102E6000684602F0DFFB0028A2D03025FF2003F0E7
:102E700045F86D1E15F0FF05F8D19DF80A0001090F
:102E800010201FE020605EE0092002F037FC0028DF
:102E90008ED11021684602F0C5FB002888D07078DA
:102EA000800711D59DF80A00800600E01AE09DF821
:102EB0000B10400E00EBD1109DF80D10FF2202EB1D
:102EC0009111401C8840DDE79DF80B008107C90E79
:102ED00001EB50109DF80A10401CC1F38401491CFD
:102EE0004843CFE7707810F0060FBDD069460B203D
:102EF000FFF74AFF0028AED19DF80000800904D1F9
:102F00009DF80A0040067FF553AFD4E900147078AD
:102F1000000701D449026402202002F0EFFB0028E0
:102F200099D12146212002F0E9FB002893D100210C
:102F3000262002F0E3FB00288DD147F2305002F04A
:102F4000FBFD002890D0002532E70000A8000020FB
:102F50002DE9F04114460D460646FFF739FE18B13B
:102F60001B480178C90702D00320BDE8F0814078F2
:102F7000000700D46D024FF40077012C294604D0DD
:102F8000122002F0BBFB60B118E0112002F0B6FB8A
:102F9000C0B93946304602F045FB98B101F0C4F89B
:102FA00014E03946304602F03DFB18B1641E06F5C8
:102FB0000076F6D100210C2002F0A0FB01F0B4F85D
:102FC00014B903E001F0B0F80120CEE70020CCE70F
:102FD000A800002010B5FFF7FBFD30B104480178D0
:102FE00021F004010170007810BD012010BD000027
:102FF000A800002070B514460D460646FFF7E8FD10
:10300000D8B321490878C00701D0032070BD0878E3
:10301000400701D5022070BD4878010700D46D0239
:10302000012C0CD010F0060F03D02146972002F09F
:1030300065FB2946192002F061FB68B11AE02946B8
:10304000182002F05BFBD0B9FE21304602F05CFF95
:10305000A8B101F069F815E0FC21304602F054FFF8
:1030600018B1641E06F50076F6D1FD21002002F0AD
:103070004BFF20B101F058F824B1012070BD01F0E0
:1030800053F8FAE7002070BDA80000202DE9F041B8
:103090001D4617460E468046002406E03946404647
:1030A00000F007F83055641CA4B2AC42F6D3BDE87A
:1030B000F08100B50346C16080211846FFF7EDFBA3
:1030C0000028F9D1D868C0B200BDF0B515460E464B
:1030D0000746002405E0315D3846FFF7EAFF641C2F
:1030E000A4B2AC42F7D3F0BD10B5D0F814225268A8
:1030F0009047002010BD134610B50A46002100F08D
:103100004CF9002010BD134610B50A46002100F00E
:10311000C3F9002010BD10B50446802100F0ACF9C1
:103120002046BDE81040002100F0A6B910B50521E9
:103130000023C0F8F4111A46194600F02EF90020B9
:1031400010BD10B502238261C0F8F431C26113468C
:103150000A46002100F0A0F9002010BD10B504219E
:103160000023C0F8F4111A46194600F095F9002022
:1031700010BDF8B5044648880D46010A08294BD20F
:10318000DFE801F04A0409174A4A4048D4F810120F
:10319000207C0A6832E0207C02260028D4F8140241
:1031A00005D0C16A684688470146467041E0816A99
:1031B000F8E7C0B206282FD2DFE800F003080D12AE
:1031C000171CD4F81012207C4A6817E0D4F81012AB
:1031D000207C8A6812E0D4F81012207CCA680DE0C6
:1031E000D4F81012207C0A6908E0D4F81012207C70
:1031F0004A6903E0D4F81012207C8A696946904736
:10320000014616E0207C38B9D4F81402416B6846B8
:103210008847F5E7207C20B129462046FFF77BFF51
:10322000F8BDD4F81402016B6846884701460720B0
:103230004870BDF800000028F2D0EA88002AEFD0DC
:10324000824200D90246ADF800202046FFF779FF00
:10325000F8BD10B5D0F82002FDF7BDFC002010BD70
:103260002DE9F0411746044641B1D4F814024269F1
:10327000EAB394F8FC0103283DD03EE0D4F8F41101
:10328000002504F1140002292CD1D0E902639E42EA
:1032900007D9F31A83609AB239462046FFF733FF05
:1032A00020E04068B0FBF3F103FB110169B99842DB
:1032B0000BD3D4F8F811884207D2002211462046D9
:1032C000FFF721FFC4F8F8510CE0D4F81402C168EC
:1032D00029B194F8FC01032801D1204688472046F3
:1032E000FFF724FF94F80002012806D100E004E073
:1032F00084F8005201E0204690470020BDE8F081AC
:1033000070B51546044641B1D4F8140282693AB347
:1033100094F8FC01032824D025E0D4F8F41104F536
:10332000827003291FD1D0E902218A420BD9531A96
:1033300083600846834200D303469AB2294620465A
:10334000FFF7D9FE0FE0D4F81402016929B194F80F
:10335000FC01032801D1204688472046FFF7FEFEE6
:1033600001E020469047002070BD0A06D0F82002F8
:1033700001F07F0100EB411002D590F82A00704760
:1033800090F80A02704710B51C461346D0F8200288
:103390002246FDF744FC002010BD10B5D0F82002F5
:1033A000FDF75FFC002010BD70B5002204464023ED
:1033B0001146FFF7E8FF40252B46002280212046DA
:1033C000C4F81051FFF7DFFF0120256284F8FC01EB
:1033D000D4F8180228B1D4F81402217942682046A2
:1033E0009047002070BD90F8FD1180F8FC1100207E
:1033F000704710B590F8FC11032904D1D0F81412CD
:10340000C96901B18847002010BD017400207047D0
:1034100010B5D0F82002FDF728FD002010BD70B5D2
:10342000044600F50270054600F03DF80120C4F89E
:10343000F401B4F80E02C4F8F80194F8080210F090
:103440001F010AD001290DD0022910D000F08001FF
:10345000204600F011F8002070BD2946204600F0FB
:103460007BF8F8E72946204600F04FF9F3E72946B4
:10347000204600F0EAF8EEE710B5D0F82002FDF79C
:1034800010FC002010BD90F8FC1180F8FD11042103
:1034900080F8FC110020704710B5D0F82002FDF72D
:1034A0002BFC002010BD0A7802704A7842708A789E
:1034B000CB7802EB032242800A794B7902EB03229C
:1034C00082808A79C97902EB0121C180704710B5E9
:1034D000D0F8142202241AB11268904700B90024CF
:1034E000204610BD70B50E461A4D897804462970E5
:1034F000012928D894F8FC01022802D0032822D1FF
:1035000005E099B10320616084F8FC0109E091B104
:10351000606888420AD0C1B22046FFF7E5FD2978ED
:1035200061602046FFF7D3FF02280CD02046BDE89B
:103530007040FFF713BE022084F8FC012046616052
:10354000FFF7D2FDF2E731462046BDE87040FFF7B5
:10355000E2BD0000000000202DE9F04100264B787C
:10356000012532460A2B43D2DFE803F03C58425192
:10357000420805422A27FFF7FCFD63E004468888DD
:10358000C8B9C888B8B9887800F07F0794F8FC01FA
:10359000032810D084F8FE7139462046FFF738FF23
:1035A0002046FFF7DBFD1FB1022084F8FC0149E053
:1035B00084F8FC5146E020461AE0FFF793FF41E013
:1035C000CB88012B14D190F8FC31022B02D0032BB5
:1035D0000ED104E08260012200F1080114E0012212
:1035E000011D11E090F8FC21022A04D0032A02D028
:1035F000FFF791FD26E0C560D0F8041209B1032160
:10360000C160022200F10C01FFF79BFD1AE00446A5
:103610004888012816D1C4F804520BE0044690F8FB
:10362000FC01022801D00328C5D14888012809D10E
:10363000C4F80422D4F81402826820469047204639
:10364000FFF78CFD3046BDE8F08170B50D460446AD
:1036500009796878002678B3012816D0032836D176
:1036600094F8FC01022817D003282CD1688828B9C7
:1036700021B1802902D02046FFF7FEFED4F81402C3
:10368000294682682046904712E094F8FC010228FF
:1036900002D0032817D103E0C9B180291BD116E05D
:1036A0006888A0B9480603D02046FFF7D2FDE5E7B9
:1036B0002046FFF753FD0AE0FFE794F8FC010228DB
:1036C00007D003280BD029462046FFF724FD3046BB
:1036D00070BD4806FBD02046FFF7CEFEF7E7080690
:1036E00001F07F0004EB001501D5143501E005F56C
:1036F00082752046FFF739FE00B1012028600222C2
:1037000029462046FFF71DFDE1E770B5054690F814
:10371000FC010C4603280DD1207901280AD8D5F8E0
:103720001402826828469047E08830B92846FFF79F
:1037300015FD02E02846FFF7EEFC002070BD2DE9E4
:10374000F047CC780A7848F68F1334B1012C6DD04D
:10375000022C08D0032C13D10BE030F822401C407F
:1037600044F400730AE030F822401C4020F8224064
:1037700006E030F822401C4044F4C06320F82230B8
:103780000C7830F8245048F68F72154048F28003C8
:103790001D43254320F824508D7A48F6BF7904272D
:1037A0004BF68F7A48F2C0044CF28006EDB30D78E8
:1037B00030F825C048F280180CEA020C4CEA080CDC
:1037C00020F825C0CD88B0F850C025F0010591F84B
:1037D00000800CEBC80C00EB4C0CCCF800540D89AD
:1037E000B0F850C025F0010591F8008007EBC8073C
:1037F000674400EB4707C7F800544D78002D0D785B
:1038000030F825704FEA47477DD0002F05DA30F8B1
:1038100025701740374320F825700D7830F8257053
:103820007F0608D530F8257001E024E01DE0174040
:10383000274320F825700C7830F824501540354384
:1038400020F824500C7830F8242002EA09021A43A8
:1038500020F824200A7830F8221001EA0A011943DE
:1038600020F822100020BDE8F08730F822401C40EC
:1038700044F4806382E74D78F5B18D88B0F85060EC
:1038800025F001050F7806EBC70600EB4606C6F8E3
:1038900000540D7830F82560760605D530F825609F
:1038A0001640264320F825600A7830F8221001EAF5
:1038B000090181F02001D2E78C88B0F8505024F043
:1038C000010491F800C007EBCC073D4400EB45052F
:1038D000C5F80044B0F850400D78062707EBC50541
:1038E0002C4400EB44070C694FF6FF7C07F580671A
:1038F0003E2C0CD9C4F34F15E40601D16D1EADB2B8
:103900000CEA852400E01EE044F4004407E0C4F320
:103910004F05E40701D06D1CADB20CEA85243C6074
:103920000C7830F824506D0405D530F8245015403B
:10393000354320F824500A7830F8221001EA0A01B1
:1039400081F440518BE7002F05DA30F825701740DD
:10395000374320F825700D7830F82560760605D5B8
:1039600030F825601640264320F825600E7830F8A0
:1039700026501540254320F826500C7830F8242096
:1039800002EA0A0282F440521A4320F824200A78FC
:1039900030F8221001EA090161E70020704730B5D4
:1039A0004D780A78002D48F68F7430F8225048F28E
:1039B000800312D06D0607D530F82250254048F21A
:1039C000C004254320F822500A7830F8221048F627
:1039D000BF74214081F0300111E06D0407D530F84B
:1039E000225025404CF28004254320F822500A78CA
:1039F00030F822104BF68F74214081F44051194366
:103A000020F82210002030BD10B50A7848F280035B
:103A100052B14978002930F8221010D048F6BF740E
:103A2000214081F010010FE001884BF6BF72114078
:103A300081F4805181F010011943018007E04BF6B9
:103A40008F74214081F48051194320F82210002006
:103A500010BD00002DE9F0410D46064689696F78DA
:103A60000622AB7A28690C464FF0000C48F2800819
:103A7000012F05D0814258D90446081AA86156E0A2
:103A8000814203D90446081AA86101E0C5F818C0AC
:103A900083B1B6F85000297802EBC101084406EB67
:103AA0004000C0F80044287836F82000400613D5BE
:103AB0002A8912E0A3B2AA883046696900F08DF81D
:103AC000B6F850002978022202EBC101084406EB47
:103AD0004000C0F800441FE0EA88A3B2304669699C
:103AE00000F07BF8697848F68F7011B101290AD08F
:103AF00012E02A7836F82210014048F2C000014353
:103B000026F8221008E0297836F8212002404CF2ED
:103B10008000024326F82120297836F8210048F653
:103B2000BF72104080F0300027E0C5F818C04FF693
:103B3000FF7103B1CFB9B6F850002B783E2C02EBE1
:103B4000C302104406EB400202F580621FD9C4F3A1
:103B50004F10E30618D000BF01EA802040F4004077
:103B600002E000BF01EA80201060297836F82100C9
:103B70004BF68F72104080F4405040EA080026F85F
:103B800021000020BDE8F081401E80B2E4E7C4F3CC
:103B90004F00E307E6D0401C80B2E3E70148FDF7A1
:103BA000CAB80000C8020020B0F844007047000006
:103BB0005B1C00EB42005B0800F5806006D000BF94
:103BC00030F8042B21F8022B5B1EF9D1704711B994
:103BD0008021A0F84C100020704710B55B1C00EB52
:103BE00042005B0800F5806009D011F8012B5B1ED4
:103BF00011F8014B42EA042220F8042BF5D110BD44
:103C0000054D4FF4004421462846FCF7BAFE6420D7
:103C100001F011FBF7E70000000C01400FB4084B66
:103C200010B504A902AA039800F01CF8044602A9E2
:103C3000002000F0C1F8204610BC5DF814FB000025
:103C4000B93D000802E008C8121F08C1002AFAD1D5
:103C500070477047002001E001C1121F002AFBD10C
:103C6000704700002DE9FF4F89B09B4604460025B0
:103C700006E025280BD05A460B999047641C6D1C12
:103C800020780028F5D10DB02846BDE8F08F002738
:103C9000B8460122474900E0074314F8013F203BA2
:103CA00002FA03F00842F7D120782E2819D114F82F
:103CB000010F47F004072A280ED06FF02F0220785A
:103CC000A0F1300109290CD808EB880102EB410171
:103CD00000EB0108641CF2E70A98641C50F8048B9E
:103CE0000A9020780028CED0642808D0692806D011
:103CF00075281ED05A460B9990476D1C58E00A99BA
:103D00004FF00A0901C90A91002802DA40422D2128
:103D100002E0390504D52B218DF82010012103E0A4
:103D2000F90704D02021F7E78A4608AE0DE000210C
:103D3000FAE70A994FF00A0901C90A91F7E74946DB
:103D4000FCF766FA303106F8011D0028F7D1ADEB1B
:103D5000060000F12009780701D44FF00108C8459A
:103D600002DDA8EB090000E000208046002706E005
:103D700008A85A46C05D0B9990476D1C7F1C57459B
:103D8000F6DB04E030205A460B9990476D1CB8F1E1
:103D90000001A8F10108F5DC05E016F8010B5A4610
:103DA0000B9990476D1CB9F10001A9F10109F4DCF0
:103DB000641C65E7092801000A68531C0B60107039
:103DC0007047000010B5044600202071401E20639B
:103DD000204601F017FA08B1032010BDB4F83202F2
:103DE000A0F52A41553901D0022010BD94F86A008F
:103DF000B4F86B1040EA01210848B0EB012F08D05D
:103E000094F88610B4F8872041EA0221B0EB012F24
:103E100001D1002010BD012010BD0000004641541A
:103E200000E0401C02780AB18A42FAD1D0B2704751
:103E30008269891E921E8A4201D800207047C26A98
:103E4000807801FB002070472DE9F0410F00054606
:103E500006D001F09DF8022809D20120BDE8F081CA
:103E6000EE6816B1A869B04207D8012605E0411CEA
:103E7000F4D0A9698142F1D83E463446A869641C51
:103E8000A04202D80224022E0AD32146284601F07D
:103E90007FF838B1411CE1D00128DFD0B442EDD128
:103EA0000020DBE76FF070422146284601F0AEFAB1
:103EB00030B957B122463946284601F0A7FA20B159
:103EC00001280DD001242046C8E7EC602869411C78
:103ED000F9D0401E2861687940F001006871F2E76E
:103EE0004FF0FF34EFE700002DE9F84F8946804698
:103EF0000D6800E06D1C28782F28FBD05C28F9D0D5
:103F00000024D8F81C702646A85D761C202817D3FC
:103F10002F2815D05C2813D0FF2C4FD2012100F0A0
:103F200069FE5FEA000A49D0BAF1800F04D2014667
:103F300077A0FFF775FFE8BB27F814A0641CE3E740
:103F4000AA19C9F80020202801D2042500E0002584
:103F50000021012C04D0022C2ED178882E2816D1D5
:103F600038882E2813D127F814100020A04201D23F
:103F70002E2200E02022D8F818100A54401C0B28EA
:103F8000F4D3D8F8181045F020020A54BEE007EB2D
:103F9000440030F8020C20280DD02E280BD04CB154
:103FA00027F814100B222021D8F8180001F023F96B
:103FB000002607E002E0641E002CE8D10620BDE8E0
:103FC000F88F761C37F816002028FAD02E28F8D063
:103FD0001EB145F0030500E0641E2CB107EB440060
:103FE00030F8020C2E28F7D1002082464FF0080B43
:103FF000CDF8000037F8160006F101065FEA000967
:1040000024D0B9F1200F04D0B9F12E0F04D1A6426B
:1040100002D045F00305EDE70098584501D2A642CD
:104020001AD1BBF10B0F0FD0A64201D045F003050A
:104030000CD84FF0080000904FEA8A6026464FF0F7
:104040000B0B4FEA106AD5E745F00305D8F81800C6
:104050000178E52938D039E04846B9F1800F10D30E
:10406000002100F0C7FD5FEA000905D02B4901EBF4
:10407000090010F8800C814645F00205B9F1000FE7
:1040800004D0014626A0FFF7CBFE20B14FF05F0918
:1040900045F003050FE0A9F14100192802D84AF0C4
:1040A000020A08E0A9F16100192804D841304AF059
:1040B000010A1FFA80F9D8F81820009902F8019037
:1040C0000098401C009095E705210170BBF1080F96
:1040D00003D14FEA8A604FEA106ACAF381000328CD
:1040E00003D06FEA0A01890701D145F00205A9074B
:1040F00009D40AF00301012901D145F01005012876
:1041000001D145F00805D8F81800C572002056E71F
:10411000222A3A3C3E3F7C7F00000000905F00086E
:104120002B2C3B3D5B5D0000024901200860FF2015
:1041300001F0E4BE100C014070B50E4604460021AB
:1041400000F0E8F988B900252169206801F05AF8E3
:1041500058B961690978E5290BD051B100250121D1
:10416000204600F0A7F80028EED0042800D1072050
:1041700070BD6D1CB542F2D170BD00002DE9FC5F31
:104180000546002100F0C6F9002877D1FF204FF640
:10419000FF7A00908146A5F820A02969286801F0DF
:1041A00031F806000DD16C69207848B1E17AE52834
:1041B00001F03F016DD00A0704D50F2969D107E04E
:1041C000042671E00F2903D0B9F1000F4AD04FE067
:1041D000E96989B3420606D5627B009220F040006F
:1041E000EA8881462A84484535D1627B009882421C
:1041F00031D101912078A04620F04000401E00EB14
:1042000080010027DFF8A8B001EBC006012400BF41
:104210001BF8071001EB0800008874B100F006FDE0
:104220000446FF2E17D2019830F81600761C00F0D5
:10423000FDFCA0420FD102E02FE050450BD17F1CC6
:104240000D2FE5D398F80000400608D53CB1019841
:1042500030F8160018B1FF2000F0FF091DE0A9F1A9
:104260000100F9E7204601F094FA009988421BD03A
:10427000A869C17AC9070CD10A2102E015E0491EDC
:1042800006D314F8012B10F8013BD21AF7D000E046
:1042900052B14FF0FF09A5F820A00021284600F0F8
:1042A00009F806003FF479AF3046BDE8FC9F0000F6
:1042B000106000082DE9F041C6880446761C3004E1
:1042C0000F46000C2CD0206950B331075AD1401C46
:1042D0002061E168206829B18278521E12EA161F17
:1042E00004D04FE00089B0421AD94BE000F050FEF4
:1042F0000546012819D9681C30D020688169A94277
:104300003AD86FB1E168FFF79FFD05000BD0012D92
:104310000BD0681C22D0206801F0A0FAF0B906E0AA
:104320000420BDE8F0810720FBE70220F9E72068C0
:104330004FF400720021343000F05DFF2946206800
:10434000FFF776FD216800274FF0010808630CE0B5
:1043500080F80480206801F081FA08B10120E0E7CC
:104360002068016B491C7F1C016320688178B94279
:10437000EED8016BC91B0163E56029462068FFF791
:1043800057FD2061E68006F00F013422206802EB21
:104390004111084460610020C3E700002DE9FF5F80
:1043A00004460C22D4E906763946684600F01AFF26
:1043B0009DF80B00810603D5062004B0BDE8F09FF0
:1043C000C00718D00020F8720125E0612B46324664
:1043D0006946384600F09CFD2046FFF7CFFE10B935
:1043E0006D1C642DF2D3642D0BD00428E5D19DF80B
:1043F0000B00F872E6619DF80B0080070DD50020D8
:1044000002E00720D9E7401C36F810100029FAD145
:104410000D211930B0FBF1F600E0012631462046AF
:10442000FFF78AFE050070D1761E5FEA060A53D0B8
:10443000E1882046A1EB0A0100F06CF8050064D188
:10444000A06901F0A6F903902169206800F0DAFE66
:1044500005005AD16169D4F81C90039848730F2065
:10446000C8720020087388760AF0FF0BC876ABF19B
:10447000010000EB800202EBC00500234FF6FF7E37
:10448000234E4A1C01E0604503D039F81500F4467C
:104490006D1CF75CC85516F80380070A08F802700F
:1044A00000B960465B1C0D2BEDD3704502D039F886
:1044B000150008B94BF0400B81F800B021680120CD
:1044C000087100212046FFF7F5FE05001DD1AAF175
:1044D00001005FEA000AB7D12169206800F092FE6E
:1044E000050012D120220021606900F084FED4E989
:1044F00005010B2200F076FEA0696169C07A00F028
:1045000018000873216801200871284655E700004B
:104510001060000870B5C18083680D460446012B09
:1045200035D020688169994231D923B901780329AE
:1045300004D1836A13B18078060111E00189A94290
:1045400025D9806A12E000BF00F022FD0346401C1E
:104550001BD0022B1BD320688069984217D9AD1B52
:104560002068B5421946EFD2FFF762FCE36070B1F4
:1045700000EB1510206105F00F013422206802EBDA
:10458000411108446061002070BD012070BD02200F
:1045900070BD01004FF0010001D1FEF75BBB704719
:1045A0000B4601004FF0040003D111461846FEF7F8
:1045B000EBBB704730B40D46010014464FF00400C9
:1045C00005D12146284630BC1A46FEF7C1BC30BC96
:1045D000704701004FF0010001D1FEF7FBBC7047AE
:1045E00030B40D460146144604203BB1002906D1E3
:1045F0002146284630BC1A46FEF7FCBC042030BCDD
:10460000704710B5044600F0EAF9002806D12046AC
:1046100001F07EFA002801D10021216010BD2DE9B2
:10462000F74F14468A4600226946204600F010FBE8
:1046300024685FEA00084FD1A7692069B91E884243
:1046400002D8CAF8000047E094F800900025B9F1BC
:10465000010F01D0666A16E002263146204600F0BE
:1046600097FC411C03D0012803D028B105E00120AC
:1046700000E00220804628E06D1CA069761C86427E
:10468000EBD322E059B93146761C204600F0BAFD42
:104690005FEA000819D104F134004FF40071B9F158
:1046A000020F07D00278D0F8013042EA032212014B
:1046B00006D006E0028802B96D1C801C891E02E04B
:1046C0006D1C001D091F7F1EDCD12561607940F043
:1046D00001006071CAF800504046BDE8FE8F2DE928
:1046E000F0470D46044601F013FA5FEA00086FD167
:1046F000E07900286CD1E068A84203D2A17989074B
:1047000000D405460027A0684FF00109A7600DB34B
:1047100022684FF0020A91784E0268B1691E401E6D
:10472000B1FBF6F1B0FBF6F3994205D3711E884355
:10473000A0602D1A61690CE0216949B90021104679
:10474000FFF782FB014601283FD0481C4ED0216173
:104750006161D1B926E0A0798007206805D5FFF70F
:1047600073FB010004D1354611E000F011FC014655
:10477000481C3BD0012928D920688069884224D967
:104780006161A068AD1B3044A060B542E3D8A06869
:104790002844A060E80505D02068FFF749FBA0B1D8
:1047A00000EB55272089C00525D0A269BA4222D046
:1047B000A07904F12405400610D52068012329467C
:1047C0004078FFF70DFF88B904E084F807A00220C5
:1047D000BDE8F087A07920F04000A0712068012397
:1047E0003A4640782946FFF7E5FE18B184F807906D
:1047F0000120EDE7A761D4E90201884204D9E06015
:10480000A07940F02000A0714046E1E717B581B0E3
:10481000144602980090684600F01EFC002802DA58
:104820000B2004B010BD0B4A002352F8201001B138
:104830000B700199002900D00B7042F8201001D0B4
:10484000012C01D00020ECE7002202A901A800F011
:10485000FFF9E6E7A00000202DE9F7478DB006003C
:104860000ED04FF0000802F01F0727F001020EA93A
:104870006846C6F8008000F0EBF9050004D087E038
:10488000092010B0BDE8F08709A8069041480790BC
:1048900068460E9900F0FCFA059C050001D104B9A8
:1048A000062517F01C0F4CD055B1042D03D16846D6
:1048B000FFF774FD0546059C47F0080755B167E012
:1048C000E07A10F0110F01D0072561E0780701D5DB
:1048D00008255DE0380742D500F0BAFBA073010A55
:1048E000E173010C2174000E607484F80B8084F86D
:1048F0001C8084F81D8084F81E8084F81F80214667
:10490000009800F0CBFB81460021204600F039FFE3
:1049100000990120B9F1000F08711ED00098494696
:10492000D0F830A000F0A4FE050031D10099A9F123
:104930000100C8605146009800F064FC05000AD0F0
:1049400026E02DBBE07AC10601D5042520E0B90799
:1049500001D5C007B8D1380701D547F02007009826
:104960002146006BC6E90704B77186F80780474601
:10497000009800F093FB3061207FD4F81D1040EACE
:104980000120C6E90270B76100983060C088B0802D
:10499000284676E7A819002010B596B004460020F6
:1049A000CDE90210049003E002A8641C00F0A8FD09
:1049B00021780029F8D1039800280DDB024601ABCD
:1049C00005A9029800F057F830B901990398884278
:1049D00002D1049816B010BD4FF0FF30FAE770B561
:1049E000044601F095F800280ED1A1798A060BD56E
:1049F00048060ED52068012304F124014078A269FD
:104A0000FFF7EEFD08B1012070BDA07920F0400055
:104A1000A071E169206800F0F5FB0028F4D1256A57
:104A2000E87A40F02000E872207B2877A089000A0D
:104A30006877E068000CA877E068000EE877284601
:104A4000216900F09EFE00F003FBA875010AE975DC
:104A5000010C2976000E68760020A874E874A0790D
:104A600020F02000A0712168012008712068BDE8B5
:104A7000704000F09BBE2DE9FC5F884600219946FE
:104A800015460446196001F043F8002806D1E07984
:104A9000002803D1A079800702D40720BDE8FC9F3D
:104AA000A068012742194FF0020A04F1240B824248
:104AB00072D391E0A068C10572D122689178491E35
:104AC00001EA502111F0FF0612D108B1616902E03C
:104AD000206928B900211046FFF7B6F900287ED0DA
:104AE00001282DD0411C54D06061216901B9206199
:104AF000A07940060BD52068012359464078A26969
:104B0000FFF76EFDA0BBA07920F04000A0716169A5
:104B10002068FFF78DF998B130440190680A009041
:104B200027D03218206881788A4201D9891B0091E8
:104B3000DDE9003240784146FFF752FDC0B903E09D
:104B400084F807A00220A9E7A1690198081A009932
:104B500088420AD208EB40214FF40072584600F018
:104B600041FBA07920F04000A0710098460229E0A6
:104B70000FE0A1690198814210D0D4E90201884276
:104B80000CD22068012359464078019AFFF712FDA4
:104B900020B1E771012081E721E001E00198A061E7
:104BA0002089C0F30800C0F50076AE4200D92E4639
:104BB000204432464146243000F014FBA07940F0F6
:104BC0004000A071A068B0443044A060D9F8000053
:104BD0008119AD1BC9F80010002D7FF46BAFD4E92B
:104BE0000201884200D9E060A07940F02000A07165
:104BF000002053E7802804D30B4A51B1FF2801D984
:104C00000020704702EB4000A0F58050B0F8000F84
:104C1000704732F81130834203D0491C89B2802991
:104C2000F7D38031C8B270471E6000080021064BE0
:104C300000E0491C33F81120002A04D08242F8D148
:104C4000024830F8110070471E610008FE6200083B
:104C50002DE9FF474FF000080746C0F800801646D0
:104C6000084600F0F9F9050003D50B2004B0BDE8B3
:104C7000F087844850F8254094B13C60207820B1FA
:104C80006078FFF7A6FCC1070CD084F80080E8B27A
:104C900047466070FFF77DFCC10708D00320E5E7B9
:104CA0000C20E3E70EB1400704D40020DEE71EB17C
:104CB000400701D50A20D9E7002529462046FFF7FD
:104CC00081F8012825D100204FEA0D0204EB0011E4
:104CD00091F8F63101F5F9712BB10B7AD1F8091081
:104CE00043EA012100E0002142F82010401C042882
:104CF000ECD300264FEA020858F826502DB1294679
:104D00002046FFF75FF808B909E00220761C042E60
:104D1000F2D3032801D0E0BB01E00120A6E7B4F8FC
:104D20003F00B0F5007F5CD1B4F84A0028B994F890
:104D30005800D4F8591040EA0120E06194F844107A
:104D40008146E170012901D002294AD1414394F8FA
:104D50004100A070E8B1421E104242D1B4F8452093
:104D6000228113073DD1B4F847602EB994F854302E
:104D7000D4F8556043EA0626B4F842C0BCF1000FEF
:104D80002FD00CEB010303EB12139E4229D3F61A2A
:104D900000E026E0B6FBF0F018B3012640F6F67806
:104DA000404500D302264FF6F678404500D303264F
:104DB000801C2B44E362AC44A061C4E9085C032E70
:104DC00011D072B16144A162022E17D000F001012E
:104DD00000EB400001EB500000F2FF10B9EB502F48
:104DE0000ED20D2042E7002AFBD194F86010D4F8CF
:104DF0006120800041EA0221A162EDE74000EBE77B
:104E00004FF0FF302061E06080206071032E2FD1D1
:104E1000B4F8640001282BD12046691C00F0F2F997
:104E200030BB6771B4F83202A0F52A4155391FD161
:104E300094F83400D4F8351040EA01201249884231
:104E400016D194F81802D4F8191240EA01200F493B
:104E500088420DD194F81C02D4F81D1240EA0120BA
:104E6000206194F82002D4F8211240EA0120E06089
:104E700004492670091F4888401C4880E08067610B
:104E800013E70000A000002052526141727241619C
:104E900073B504460199002508782F280ED05C28A8
:104EA0000CD020684069A06001980078202809D2C1
:104EB00000212046FFF72EFB65617CBD491C019156
:104EC000A560F1E701A92046FFF70EF80028F4D10C
:104ED0002046FFF753F9A169C97A68B10428ECD1DB
:104EE0008A0605D5A56065614807EBD500207CBD25
:104EF0004907FCD405207CBD4907FCD46169C87A08
:104F0000C006F7D5206800F0C9F8A060DAE7000015
:104F10007CB516461C4605460B2200F063F9052CAD
:104F200011D91A4A0CE00021B61C2346044663F34B
:104F30005F044008E30300D55440491C1029F4D312
:104F400030880028EFD107214FEA0D0204F00F004E
:104F50003030392800D9C01D5054491E2409F5D1DC
:104F60007E205054002000E0401C884202D22B5C7E
:104F7000202BF9D1082902D2535C491C00E02023E0
:104F80002B54401C0828F5D37CBD000021100100E3
:104F90002DE9F0410D46044602290BD3A069A84231
:104FA00008D920784FF0FF36012807D002282BD0EF
:104FB000032836D001263046BDE8F081606A05EB53
:104FC000550700EB5721204600F01CF90028F2D1CC
:104FD000C7F3080020447F1C90F83480606A00EB1F
:104FE0005721204600F00EF90028E4D1C7F308004D
:104FF000204490F8341048EA0120E90701D006095E
:10500000D9E7C0F30B06D6E7606A00EB152120460E
:1050100000F0F8F80028CED1E8B204EB4000868E0C
:10502000C9E7606A00EBD511204600F0EBF80028D4
:10503000C1D140F2FF1000EA8500204490F83410FE
:10504000D0F8350041EA002020F07046B3E70000B8
:10505000004870470000FC4210B504464FF0FF3096
:105060002268002A13D0114600E0491C0B78202B3F
:105070000ED33A2BF9D112F8013B303B0A2B06D262
:105080008A4204D1022B02D2491C1846216010BD6D
:105090000148007810BD00009C0000200246488BAB
:1050A0001278032A02D1898A40EA01407047000041
:1050B0008AB0FBF70DFDFDF75DFCFDF79FF8FDF7EE
:1050C00067F8324830494FF480420160304941600E
:1050D00000218160C0E9031241618161C161016207
:1050E000FBF75EFCFDF7ECF8FDF710F9FDF72AF988
:1050F000012228A12848FFF789FB284C00282AD143
:10510000032227A12948FFF7A7FB2070D8B1072267
:1051100023A12648FFF7A0FBC0B91F4824A164388B
:10512000FEF77CFD2148C168FFF7D9FA1F49A1F5B8
:105130002670FFF731FC002808DD04F11401081F78
:10514000FDF752FD10B91948FFF75BFA012211A1D2
:105150000020FFF75BFB14221E496846FBF734F87A
:105160000021684600F07DF81A49A060142214312D
:1051700005A8FBF729F8002105A800F072F8E06007
:1051800000F060F8FEE7000000540040180700201F
:10519000A0860100303A00006008002004000020D2
:1051A000303A54656D70722E74787400940A002041
:1051B00044617461090954696D650909566F6C741D
:1051C0006167650954656D70720950726573757217
:1051D000650A0000585F000801460020842900D0BD
:1051E000C81C704704E000BF11F8013B00F8013B08
:1051F000521EF9D27047C9B201E000F8011B521EDD
:10520000FBD2704770B50446006B0D460026A842DD
:105210000FD0204600F022FB06000AD1607801235F
:105220002A4604F13401FFF7C5F908B1751E0126BD
:105230002563304670BD10B500B9012000F0E8FBD1
:10524000002010BD10B500F00BFC002010BD10B503
:1052500000F090FD012803D0BDE8104000F0B6BC7E
:1052600010BD30B5044685B00D46B0F90800FFF713
:10527000B3FF002104AA0090CDE901210391208A07
:105280002B4682B2D4E9001000F0B2FC012802D013
:10529000002005B030BD0498FBE7000070B50B4C52
:1052A000054620684560E0682168854205D2606B4C
:1052B000BDE87040091D00F01ABB206B091D00F00D
:1052C00016FBA06A854200D2A56270BD5C0000207A
:1052D00070B5124E124C1AE000F0E8FB3068D0B105
:1052E00000F0B6FD00F028FBF068C568281D00F04E
:1052F000DEFAA068401EA0606068401E606000F09A
:1053000035FB286B00F044FB284600F041FB606849
:105310000028E1D170BD00F09BFDF8E78019002066
:105320005C00002010484FF44061420706D0C01DC9
:105330000D4920F00700411AC1F540610B4A0023D6
:105340000144C2E900030839103A21F00701116055
:105350004B600B600B1AC0E9001393604FF00040E4
:105360005360D06070470000B80C0020540000204B
:10537000044C00BFFFF7ACFF20680128FAD900F009
:105380003BFBF7E7B818002030B5114900E01146A3
:105390000A688242FBD34B685C18844203D14068A0
:1053A00018444860084643681C18944209D1084CC8
:1053B000103C2468A24209D052681A4442600A682C
:1053C00012680260814200D0086030BD0460F9E7D5
:1053D000540000200648016B096829B1016BC968B7
:1053E000C9684968816270474FF0FF31FAE70000F1
:1053F0005C00002004484068401C02D0FAF7C4FE5C
:10540000FEE7FAF7C1FEFEE7380000202DE9F0477D
:1054100017460D460446022902D3A069A84202D8C5
:105420000220BDE8F087217807F0FF084FF001095E
:10543000012920D0022950D00329F1D1606A00EB64
:10544000D5112046FFF7DEFE0028EAD140F2FF1119
:1054500001EA85010A194FF07043D2F8351003EACA
:105460000121394302F8341F0B0A53700B0C93705F
:10547000090ED17041E0606A05EB550600EB56213C
:105480002046FFF7BFFE0028CBD1C6F3080020441A
:105490003430761CE90703D0017868F31F1100E06F
:1054A0003946017084F80490606A00EB562120466A
:1054B000FFF7A8FE0028B4D1C6F308012144343117
:1054C000EA0702D0C7F3071205E00A78C7F30323FF
:1054D00002F0F0021A430A700FE0606A00EB152137
:1054E0002046FFF78FFE00289BD1E9B204EB410173
:1054F0003A0A81F8348081F8352084F8049090E7E6
:10550000F8B50E4604460A2902D10D21FFF7F8FF2F
:105510006568002D16DB60196D1C06733D2D0DDBD3
:105520006B462A4604F10C012068FFF7A4FA0098A4
:10553000A84201D1002501E04FF0FF356560A06869
:10554000401CA060F8BD00002DE9F0410546002791
:1055500000F0ACFA2A4E306808B9FFF7E3FEF068B5
:10556000054242D1F5B30835680709D005F00700B8
:10557000C0F108000544680702D0FAF705FEFEE70F
:1055800085B37068854230D81D48103001460C68DC
:1055900001E020460C466168A94202D22168002938
:1055A000F7D131688C4220D00768216801606068BB
:1055B0000837411B102909D96019420702D0FAF7B0
:1055C000E3FDFEE741606560FFF7DEFE616870683D
:1055D000401A7060B268904200D2B060F068014337
:1055E000002000E001E0C4E9000100F031FC780790
:1055F00002D0FAF7C9FDFEE73846BDE8F0810000A9
:105600004400002010B5031F4FF080741C601B1F66
:105610001960191F024B0B60143940380A6010BD25
:10562000F553000870B5104E0546C8200C46306092
:10563000FF2000F063FCFF2803D0FE2805D00020E7
:1056400070BD30680028F3D1F9E72946A3B2FF22E4
:105650000648FDF71BFDFF2000F050FCFF2000F086
:105660004DFC012070BD00002000002000300140F2
:105670002DE9F0410F460646022916D3B069B8421B
:1056800013D900251FE039463046FFF781FC04009E
:105690001CD0012C09D0601C09D0002239463046AC
:1056A000FFF7B4FE050011D103E002250EE001254D
:1056B0000CE03069411C05D0401C3061707940F02D
:1056C000010070712746B069B842DCD82846BDE8B1
:1056D000F0810000084910B501200860FF2000F0AB
:1056E0000DFC4FF4FA7000F027FA08B1012010BD4C
:1056F000FEF71AFD002010BD140C014070B50446E1
:105700000D46000607D504F07F0400213720FFF77F
:10571000F5FF012822D80C2C04D0FEF705FDFFF779
:10572000D9FFD0B144F0400000F0E8FB280E00F0B3
:10573000E5FBC5F3074000F0E1FBC5F3072000F0EF
:10574000DDFBE8B200F0DAFB012044B1082C08D000
:1057500000F0D4FB0C2C12D006E0FF2070BD952089
:1057600000E0872000F0CAFB0A24FF2000F0C6FBFF
:105770000106F3D5641E14F0FF04F6D170BDFF20BE
:10578000F0E781760A0AC2760A0C0275090E4175A5
:105790007047014600200B22430803EBC01011F8AC
:1057A000013B521E1844C0B2F6D1704770B5044692
:1057B00000F054F805004FD12078032845D16079D6
:1057C000012842D1420204F1340000210646FFF7CD
:1057D00012FD552084F83202AA2084F833025220A8
:1057E00084F8340084F83500612084F836004121C3
:1057F00084F83710722284F8182284F8192284F869
:105800001A1284F81B02206984F81C02010A84F829
:105810001D12010C84F81E12000E84F81F02E068AD
:1058200084F82002010A84F82112010C84F8221263
:10583000000E84F82302226A0123521C226360783E
:105840003146FEF7CDFE00206071002260781146DF
:10585000FEF7A6FE00B10125284670BD2DE9F041F6
:10586000044600790027F8B1256B04F13401607813
:1058700001232A468846FEF7B3FE08B1012713E04C
:1058800000202071606AE169281A88420CD2E6780B
:1058900008E0E0690123054460782A464146FEF7A6
:1058A0009FFE761E022EF4D23846BDE8F081D0E984
:1058B000013201699A60D0E901235A604A68824244
:1058C00001D182684A60002202610868401E0860B7
:1058D000704700F108014FF0FF32C0E90112C160CA
:1058E000016100210160704700210161704730B5FE
:1058F0000B685A1C02D000F1080202E0026904E0C1
:105900002246546825689D42FAD953684B609960D5
:105910008A60516008610168491C016030BD4268BD
:105920004A6093688B609368596091600861016870
:10593000491C01607047000010B5FAF725FC0948C2
:105940004168491CBFF34F8FBFF36F8F416001293E
:1059500006D105480068C00602D0FAF715FCFEE73C
:1059600010BD00003800002004ED00E0074910B52C
:10597000486830B1401E486006D1BDE81040FAF7D3
:105980000ABCFAF701FCFEE710BD00003800002059
:1059900070B500281DD00F4DA0F108046068E968BB
:1059A000084202D1FAF7F0FBFEE7226812B1FAF7DB
:1059B000EBFBFEE78843606000F078F86068696898
:1059C000084468602046FFF7DFFCBDE8704000F047
:1059D0003FBA70BD4400002006484FF47A71006859
:1059E000B0FBF1F14FF0E020491E41610721016158
:1059F000704700002400002004494FF080500860E8
:105A0000BFF34F8FBFF36F8F7047000004ED00E0CE
:105A100070B502001DD0114CE06A10B1FAF7B4FB6A
:105A2000FEE700F043F8E06885182068001DFFF7E6
:105A30003EFF38B9206890F82C1001208840216979
:105A4000814321612846FFF729FC00F001FA002874
:105A500003D1BDE87040FFF7CFBF70BD5C000020F0
:105A60001FB50024009401940294234680220BA1C8
:105A70000C48039400F0BCF8012804D000280CD195
:105A8000FAF782FBFEE7FAF77FFB07480121416145
:105A9000C460BDE81F4000F05FB81FBD49444C45DD
:105AA00000000000715300085C0000200248C16A39
:105AB000491CC162704700005C000020124810B50C
:105AC000C16A11B10121C16110BD0021C16101692B
:105AD0000E4AB1FA81F1C1F11F0101EB810152F8C7
